:100000000C9462000C948A000C948A000C948A0070
:100010000C948A000C948A000C948A000C948A0038
:100020000C948A000C948A000C948A000C94A6020A
:100030000C948A000C948A000C948A000C948A0018
:100040000C945C020C948A000C948A000C948A0034
:100050000C948A000C948A000C948A000C948A00F8
:100060000C948A000C948A000000000023002600F3
:10007000290000000008000201000003040700003E
:1000800000000000000000000000250028002B00F8
:1000900000000000240027002A00040404040404D3
:1000A0000404020202020202030303030303010227
:1000B00004081020408001020408102001020408F6
:1000C00010208E0411241FBECFEFD8E0DEBFCDBFBD
:1000D00011E0A0E0B1E0E2E2FAE002C005900D928A
:1000E000A030B107D9F721E0A0E0B1E001C01D9236
:1000F000A034B207E1F710E0C2E6D0E004C02197D7
:10010000FE010E940905C136D107C9F70E947D038F
:100110000C940F050C94000090E0FC01E255FF4F99
:10012000249186569F4FFC018491882399F090E09A
:10013000880F991FFC01E057FF4FA591B491FC0176
:10014000EA57FF4F859194918FB7F894EC91E22B89
:10015000EC938FBF08951F93CF93DF93EC01162F7D
:1001600088818C3008F04DC0862F0E948C008881D9
:10017000282F30E0F901EE0FFF1FE20FF31FE45EBE
:10018000FE4F1F736081607C612B608319821A822D
:100190002CE0622F0E94FD04829FB001112430E008
:1001A00020E0AB01420F531FFA01EE0FFF1FE40FD7
:1001B000F51FE45EFE4F908196FD16C02F5F3F4F06
:1001C0002C30310571F781110FC01092800082E050
:1001D000809381001092850010928400B19A8091E2
:1001E0006F00826080936F00E8818E2F90E0FC01A9
:1001F000EE0FFF1FE80FF91FE45EFE4F8081806461
:1002000080838881DF91CF911F910895833081F0A1
:1002100028F4813099F08230A9F008958730A9F050
:100220008830C9F08430B1F4809180008F7D03C0A4
:10023000809180008F7780938000089584B58F77B8
:1002400084BD089584B58F7DFBCF8091B0008F77FA
:100250008093B00008958091B0008F7DF9CFCF9347
:10026000DF93282F30E0F901EE58FF4F8491F90118
:10027000E255FF4FD491F901E656FF4FC491CC23CC
:10028000A1F081110E940601EC2FF0E0EE0FFF1F9C
:10029000E859FF4FA591B491EC91ED2381E090E0F6
:1002A00009F480E0DF91CF91089580E090E0FACFEB
:1002B0001F93CF93DF93282F30E0F901EE58FF4FC3
:1002C0008491F901E255FF4FD491F901E656FF4FB1
:1002D000C491CC23A9F0162F81110E940601EC2FA6
:1002E000F0E0EE0FFF1FEA57FF4FA591B4918FB7D3
:1002F000F894EC91111108C0D095DE23DC938FBFE8
:10030000DF91CF911F910895DE2BF8CF3FB7F8947E
:100310008091070190910801A0910901B0910A0113
:1003200026B5A89B05C02F3F19F00196A11DB11D50
:100330003FBFBA2FA92F982F8827BC01CD01620F8C
:10034000711D811D911D42E0660F771F881F991F47
:100350004A95D1F708958F929F92AF92BF92CF9214
:10036000DF92EF92FF920E9486014B015C018FE0C9
:10037000C82ED12CE12CF12C0E9486016819790934
:100380008A099B09683E734081059105A8F321E025
:10039000C21AD108E108F10888EE880E83E0981EA1
:1003A000A11CB11CC114D104E104F10429F7FF9090
:1003B000EF90DF90CF90BF90AF909F908F90089577
:1003C000CF92DF92EF92FF92CF93DF93EC016032F6
:1003D00082E07807CCF5653B710514F064EB70E0C2
:1003E000898128E830E0281B310987FD3395220FE9
:1003F000331F220F331F6901330FEE08FF088A8174
:1004000028E532E0281B310987FD3395220F331F81
:10041000220F331F032E000C440B550B2C193D09E2
:100420004E095F09DB0177FF02C0B0E0A0E00E9447
:10043000C40424EB30E040E050E00E949A04C20E75
:10044000D31EE41EF51EB601E881EC3070F529815B
:1004500088E890E0821B910927FD9395880F991FEA
:10046000880F991F681779077CF02A8188E592E048
:10047000821B910927FD9395880F991F880F991F5B
:10048000681779070CF4CB010297880F991F4FB7B3
:10049000F8942E2F30E0F901EE0FFF1FE20FF31F4B
:1004A000E45EFE4F928381834FBFDF91CF91FF9037
:1004B000EF90DF90CF9008951F920F920FB60F929A
:1004C00011242F933F938F939F93AF93BF9380916A
:1004D000030190910401A0910501B09106013091B2
:1004E000020123E0230F2D3758F50196A11DB11D00
:1004F000209302018093030190930401A0930501CE
:10050000B09306018091070190910801A091090123
:10051000B0910A010196A11DB11D8093070190932E
:100520000801A0930901B0930A01BF91AF919F9177
:100530008F913F912F910F900FBE0F901F901895A4
:1005400026E8230F0296A11DB11DD2CF1F920F9254
:100550000FB60F9211242F933F934F935F936F9396
:100560007F938F939F93AF93BF93CF93DF93EF933B
:10057000FF9380910001C0910101D0E087FF24C06A
:100580001092850010928400809100018F5F80930B
:10059000000180910001082E000C990B8C179D071B
:1005A00024F4809100018C30C4F1809184009091FA
:1005B0008500049680349C4908F47AC080918400B8
:1005C00090918500049676C080910001082E000C61
:1005D000990B8C179D07C4F6E09100018E2FEE0F4A
:1005E000990BFC01EE0FFF1FE80FF91FE45EFE4FB1
:1005F000808186FFC9CFE09100018E2FEE0F990B0D
:10060000FC01EE0FFF1FE80FF91FE45EFE4F808133
:1006100060E08F730E945801B7CF20918400309121
:100620008500E09100018E2FEE0F990BFC01EE0F7B
:10063000FF1FE80FF91FE45EFE4F81819281820F58
:10064000931F9093890080938800E09100018E2F82
:10065000EE0F990BFC01EE0FFF1FE80FF91FE45E90
:10066000FE4F808186FF11C0E09100018E2FEE0FBA
:10067000990BFC01EE0FFF1FE80FF91FE45EFE4F20
:10068000808161E08F730E945801FF91EF91DF91AB
:10069000CF91BF91AF919F918F917F916F915F911A
:1006A0004F913F912F910F900FBE0F901F90189573
:1006B00080E49CE990938900809388008FEF809379
:1006C0000001E3CFFC01909101019C3098F481E09E
:1006D000890F809301019083892F90E0FC01EE0F38
:1006E000FF1FE80FF91FE45EFE4F88EB9BE092834B
:1006F000818308958FEF80830895789484B5826014
:1007000084BD84B5816084BD85B5826085BD85B5B5
:10071000816085BD80916E00816080936E00109233
:1007200081008091810082608093810080918100AE
:10073000816080938100809180008160809380003F
:100740008091B10084608093B1008091B00081609D
:100750008093B00080917A00846080937A008091C9
:100760007A00826080937A0080917A008160809321
:100770007A0080917A00806880937A001092C1009C
:1007800068E070E085E191E00E94AB0069E070E014
:1007900080E191E00E94AB006AE070E08BE091E0C4
:1007A0000E94AB0070E060E085E191E00E94E00112
:1007B00070E060E080E191E00E94E00170E060E0C4
:1007C0008BE091E00E94E00186E00E948C0000E056
:1007D00010E083E00E942F0161E0019709F060E0E2
:1007E00086E00E94580184E00E942F01813091052B
:1007F000F1F460911A0170911B0161157105E1F529
:10080000909319018093180180911801909119011A
:1008100081309105C9F56F5F7F4F70931B01609325
:100820001A0185E191E00E94E0010E94AB0182E0A3
:100830000E942F01019709F056C0809113019091F9
:100840001401843B910529F11092140110921301B7
:10085000C0911301D0911401C43BD10504F5BE0130
:1008600080E191E00E94E0010E94AB012196D093CB
:100870001401C0931301ECCF643B710529F610926B
:10088000190110921801C0CF892B79F661507109B6
:10089000C4CF64EB70E080E191E00E94E00185E06C
:1008A0000E942F01019799F580910E0190910F01FF
:1008B000843B9105F9F010920F0110920E01C09146
:1008C0000E01D0910F01C43BD105D4F4BE018BE0E1
:1008D00091E00E94E0010E94AB012196D0930F01AC
:1008E000C0930E01ECCF109214011092130170E02E
:1008F00060E0D1CF64EB70E08BE091E00E94E0011A
:100900000115110509F465CF0E94000062CF109215
:100910000F0110920E0170E060E0EECF85E191E0F2
:100920000E94620380E191E00E9462038BE091E00B
:100930000C946203052E97FB1EF400940E94B104F0
:1009400057FD07D00E94CC0407FC03D04EF40C9452
:10095000B10450954095309521953F4F4F4F5F4FD3
:10096000089590958095709561957F4F8F4F9F4F1B
:1009700008950E94EE04A59F900DB49F900DA49F32
:10098000800D911D11240895B7FF0C94B9040E94A5
:10099000B904821B930B0895A1E21A2EAA1BBB1B5C
:1009A000FD010DC0AA1FBB1FEE1FFF1FA217B3073B
:1009B000E407F50720F0A21BB30BE40BF50B661F51
:1009C000771F881F991F1A9469F760957095809515
:1009D00090959B01AC01BD01CF010895A29FB0018C
:1009E000B39FC001A39F700D811D1124911DB29F63
:1009F000700D811D1124911D0895991B79E004C08B
:100A0000991F961708F0961B881F7A95C9F780954D
:100A10000895EE0FFF1F0590F491E02D0994F894CE
:020A2000FFCF06
:107E0000112484B714BE81FFF0D085E080938100F7
:107E100082E08093C00088E18093C10086E0809377
:107E2000C20080E18093C4008EE0C9D0259A86E02C
:107E300020E33CEF91E0309385002093840096BBD3
:107E4000B09BFECF1D9AA8958150A9F7CC24DD24C4
:107E500088248394B5E0AB2EA1E19A2EF3E0BF2EE7
:107E6000A2D0813461F49FD0082FAFD0023811F036
:107E7000013811F484E001C083E08DD089C08234E0
:107E800011F484E103C0853419F485E0A6D080C0E4
:107E9000853579F488D0E82EFF2485D0082F10E0AE
:107EA000102F00270E291F29000F111F8ED06801E7
:107EB0006FC0863521F484E090D080E0DECF843638
:107EC00009F040C070D06FD0082F6DD080E0C81688
:107ED00080E7D80618F4F601B7BEE895C0E0D1E017
:107EE00062D089930C17E1F7F0E0CF16F0E7DF06D8
:107EF00018F0F601B7BEE89568D007B600FCFDCFD4
:107F0000A601A0E0B1E02C9130E011968C91119780
:107F100090E0982F8827822B932B1296FA010C0160
:107F200087BEE89511244E5F5F4FF1E0A038BF0790
:107F300051F7F601A7BEE89507B600FCFDCF97BE46
:107F4000E89526C08437B1F42ED02DD0F82E2BD052
:107F50003CD0F601EF2C8F010F5F1F4F84911BD097
:107F6000EA94F801C1F70894C11CD11CFA94CF0C13
:107F7000D11C0EC0853739F428D08EE10CD085E9AC
:107F80000AD08FE07ACF813511F488E018D01DD067
:107F900080E101D065CF982F8091C00085FFFCCF94
:107FA0009093C60008958091C00087FFFCCF809118
:107FB000C00084FD01C0A8958091C6000895E0E648
:107FC000F0E098E1908380830895EDDF803219F02E
:107FD00088E0F5DFFFCF84E1DECF1F93182FE3DFCA
:107FE0001150E9F7F2DF1F91089580E0E8DFEE27F6
:047FF000FF270994CA
:027FFE00040479
:0400000300007E007B
:00000001FF
